{
  "contractName": "Test2Facet",
  "abi": [
    {
      "inputs": [],
      "name": "test2Func1",
      "outputs": [],
      "stateMutability": "nonpayable",
      "type": "function"
    },
    {
      "inputs": [],
      "name": "test2Func2",
      "outputs": [],
      "stateMutability": "nonpayable",
      "type": "function"
    },
    {
      "inputs": [],
      "name": "test2Func3",
      "outputs": [],
      "stateMutability": "nonpayable",
      "type": "function"
    },
    {
      "inputs": [],
      "name": "test2Func4",
      "outputs": [],
      "stateMutability": "nonpayable",
      "type": "function"
    },
    {
      "inputs": [],
      "name": "test2Func5",
      "outputs": [],
      "stateMutability": "nonpayable",
      "type": "function"
    },
    {
      "inputs": [],
      "name": "test2Func6",
      "outputs": [],
      "stateMutability": "nonpayable",
      "type": "function"
    },
    {
      "inputs": [],
      "name": "test2Func7",
      "outputs": [],
      "stateMutability": "nonpayable",
      "type": "function"
    },
    {
      "inputs": [],
      "name": "test2Func8",
      "outputs": [],
      "stateMutability": "nonpayable",
      "type": "function"
    },
    {
      "inputs": [],
      "name": "test2Func9",
      "outputs": [],
      "stateMutability": "nonpayable",
      "type": "function"
    },
    {
      "inputs": [],
      "name": "test2Func10",
      "outputs": [],
      "stateMutability": "nonpayable",
      "type": "function"
    },
    {
      "inputs": [],
      "name": "test2Func11",
      "outputs": [],
      "stateMutability": "nonpayable",
      "type": "function"
    },
    {
      "inputs": [],
      "name": "test2Func12",
      "outputs": [],
      "stateMutability": "nonpayable",
      "type": "function"
    },
    {
      "inputs": [],
      "name": "test2Func13",
      "outputs": [],
      "stateMutability": "nonpayable",
      "type": "function"
    },
    {
      "inputs": [],
      "name": "test2Func14",
      "outputs": [],
      "stateMutability": "nonpayable",
      "type": "function"
    },
    {
      "inputs": [],
      "name": "test2Func15",
      "outputs": [],
      "stateMutability": "nonpayable",
      "type": "function"
    },
    {
      "inputs": [],
      "name": "test2Func16",
      "outputs": [],
      "stateMutability": "nonpayable",
      "type": "function"
    },
    {
      "inputs": [],
      "name": "test2Func17",
      "outputs": [],
      "stateMutability": "nonpayable",
      "type": "function"
    },
    {
      "inputs": [],
      "name": "test2Func18",
      "outputs": [],
      "stateMutability": "nonpayable",
      "type": "function"
    },
    {
      "inputs": [],
      "name": "test2Func19",
      "outputs": [],
      "stateMutability": "nonpayable",
      "type": "function"
    },
    {
      "inputs": [],
      "name": "test2Func20",
      "outputs": [],
      "stateMutability": "nonpayable",
      "type": "function"
    }
  ],
  "bytecode": "0x608060405234801561001057600080fd5b506101b3806100206000396000f3fe608060405234801561001057600080fd5b506004361061016c5760003560e01c80638ee8be30116100cd578063d2f0c73e11610081578063e7de23a411610066578063e7de23a414610171578063ea36b55814610171578063ef3f4d78146101715761016c565b8063d2f0c73e14610171578063e5f687b2146101715761016c565b8063c670641d116100b2578063c670641d14610171578063ca5fa5c014610171578063caae8f23146101715761016c565b80638ee8be301461017157806391d0396b146101715761016c565b80632e463958116101245780636dc16b01116101095780636dc16b0114610171578063792a8e2e14610171578063884280a6146101715761016c565b80632e463958146101715780635fd6312b146101715761016c565b80630e4cd7fc116101555780630e4cd7fc14610171578063148843091461017157806317fd06e7146101715761016c565b806303feeeae146101715780630c103a9314610171575b600080fd5b61017961017b565b005b56fea26469706673582212204d1082f039bc20c39a4ae61003a8c0e0f93761b0a00bc7b6827332d43313b23c64736f6c63430007060033",
  "immutableReferences": {},
  "source": "// SPDX-License-Identifier: MIT\npragma solidity ^0.7.6;\npragma experimental ABIEncoderV2;\n\ncontract Test2Facet {\n    function test2Func1() external {}\n\n    function test2Func2() external {}\n\n    function test2Func3() external {}\n\n    function test2Func4() external {}\n\n    function test2Func5() external {}\n\n    function test2Func6() external {}\n\n    function test2Func7() external {}\n\n    function test2Func8() external {}\n\n    function test2Func9() external {}\n\n    function test2Func10() external {}\n\n    function test2Func11() external {}\n\n    function test2Func12() external {}\n\n    function test2Func13() external {}\n\n    function test2Func14() external {}\n\n    function test2Func15() external {}\n\n    function test2Func16() external {}\n\n    function test2Func17() external {}\n\n    function test2Func18() external {}\n\n    function test2Func19() external {}\n\n    function test2Func20() external {}\n}\n",
  "sourcePath": "/home/aaa/Documents/DeFi-Contract/contracts/facets/Test2Facet.sol",
  "compiler": {
    "name": "solc",
    "version": "0.7.6+commit.7338295f.Emscripten.clang"
  },
  "schemaVersion": "3.4.16",
  "updatedAt": "2024-07-21T15:16:48.201Z",
  "devdoc": {
    "kind": "dev",
    "methods": {},
    "version": 1
  },
  "userdoc": {
    "kind": "user",
    "methods": {},
    "version": 1
  }
}