{
  "contractName": "Test1Facet",
  "abi": [
    {
      "anonymous": false,
      "inputs": [
        {
          "indexed": false,
          "internalType": "address",
          "name": "something",
          "type": "address"
        }
      ],
      "name": "TestEvent",
      "type": "event"
    },
    {
      "inputs": [],
      "name": "test1Func1",
      "outputs": [],
      "stateMutability": "nonpayable",
      "type": "function"
    },
    {
      "inputs": [],
      "name": "test1Func2",
      "outputs": [],
      "stateMutability": "nonpayable",
      "type": "function"
    },
    {
      "inputs": [],
      "name": "test1Func3",
      "outputs": [],
      "stateMutability": "nonpayable",
      "type": "function"
    },
    {
      "inputs": [],
      "name": "test1Func4",
      "outputs": [],
      "stateMutability": "nonpayable",
      "type": "function"
    },
    {
      "inputs": [],
      "name": "test1Func5",
      "outputs": [],
      "stateMutability": "nonpayable",
      "type": "function"
    },
    {
      "inputs": [],
      "name": "test1Func6",
      "outputs": [],
      "stateMutability": "nonpayable",
      "type": "function"
    },
    {
      "inputs": [],
      "name": "test1Func7",
      "outputs": [],
      "stateMutability": "nonpayable",
      "type": "function"
    },
    {
      "inputs": [],
      "name": "test1Func8",
      "outputs": [],
      "stateMutability": "nonpayable",
      "type": "function"
    },
    {
      "inputs": [],
      "name": "test1Func9",
      "outputs": [],
      "stateMutability": "nonpayable",
      "type": "function"
    },
    {
      "inputs": [],
      "name": "test1Func10",
      "outputs": [],
      "stateMutability": "nonpayable",
      "type": "function"
    },
    {
      "inputs": [],
      "name": "test1Func11",
      "outputs": [],
      "stateMutability": "nonpayable",
      "type": "function"
    },
    {
      "inputs": [],
      "name": "test1Func12",
      "outputs": [],
      "stateMutability": "nonpayable",
      "type": "function"
    },
    {
      "inputs": [],
      "name": "test1Func13",
      "outputs": [],
      "stateMutability": "nonpayable",
      "type": "function"
    },
    {
      "inputs": [],
      "name": "test1Func14",
      "outputs": [],
      "stateMutability": "nonpayable",
      "type": "function"
    },
    {
      "inputs": [],
      "name": "test1Func15",
      "outputs": [],
      "stateMutability": "nonpayable",
      "type": "function"
    },
    {
      "inputs": [],
      "name": "test1Func16",
      "outputs": [],
      "stateMutability": "nonpayable",
      "type": "function"
    },
    {
      "inputs": [],
      "name": "test1Func17",
      "outputs": [],
      "stateMutability": "nonpayable",
      "type": "function"
    },
    {
      "inputs": [],
      "name": "test1Func18",
      "outputs": [],
      "stateMutability": "nonpayable",
      "type": "function"
    },
    {
      "inputs": [],
      "name": "test1Func19",
      "outputs": [],
      "stateMutability": "nonpayable",
      "type": "function"
    },
    {
      "inputs": [],
      "name": "test1Func20",
      "outputs": [],
      "stateMutability": "nonpayable",
      "type": "function"
    },
    {
      "inputs": [
        {
          "internalType": "bytes4",
          "name": "_interfaceID",
          "type": "bytes4"
        }
      ],
      "name": "supportsInterface",
      "outputs": [
        {
          "internalType": "bool",
          "name": "",
          "type": "bool"
        }
      ],
      "stateMutability": "view",
      "type": "function"
    }
  ],
  "bytecode": "0x608060405234801561001057600080fd5b5061023f806100206000396000f3fe608060405234801561001057600080fd5b50600436106101775760003560e01c806351b68a4d116100d85780639abf97aa1161008c578063cd0bae0911610066578063cd0bae09146101a5578063cf3bbe18146101a5578063db32da15146101a557610177565b80639abf97aa146101a5578063b0e8fcc7146101a5578063cbb835f6146101a557610177565b806377e9d0d6116100bd57806377e9d0d6146101a557806381b5207d146101a557806387952d22146101a557610177565b806351b68a4d146101a557806371a99d6f146101a557610177565b806324c1d5a71161012f5780632cb83248116101145780632cb83248146101a55780634484b3b9146101a557806350eb3f43146101a557610177565b806324c1d5a7146101a5578063292c460d146101a557610177565b8063110460471161016057806311046047146101a557806319c841ab146101a557806319e3b533146101a557610177565b806301ffc9a71461017c5780630716c2ae146101a5575b600080fd5b61018f61018a3660046101b7565b6101af565b60405161019c91906101fe565b60405180910390f35b6101ad6101b5565b005b50600090565b565b6000602082840312156101c8578081fd5b81357fffffffff00000000000000000000000000000000000000000000000000000000811681146101f7578182fd5b9392505050565b90151581526020019056fea26469706673582212207a156627e0703bbd6ec3e47408e427c98de1c1a14a246b6b9c1bd41d1529af8b64736f6c63430007060033",
  "immutableReferences": {},
  "source": "// SPDX-License-Identifier: MIT\npragma solidity ^0.7.6;\npragma experimental ABIEncoderV2;\n\ncontract Test1Facet {\n    event TestEvent(address something);\n\n    function test1Func1() external {}\n\n    function test1Func2() external {}\n\n    function test1Func3() external {}\n\n    function test1Func4() external {}\n\n    function test1Func5() external {}\n\n    function test1Func6() external {}\n\n    function test1Func7() external {}\n\n    function test1Func8() external {}\n\n    function test1Func9() external {}\n\n    function test1Func10() external {}\n\n    function test1Func11() external {}\n\n    function test1Func12() external {}\n\n    function test1Func13() external {}\n\n    function test1Func14() external {}\n\n    function test1Func15() external {}\n\n    function test1Func16() external {}\n\n    function test1Func17() external {}\n\n    function test1Func18() external {}\n\n    function test1Func19() external {}\n\n    function test1Func20() external {}\n\n    function supportsInterface(bytes4 _interfaceID) external view returns (bool) {}\n}\n",
  "sourcePath": "/home/aaa/Documents/DeFi-Contract/contracts/facets/Test1Facet.sol",
  "compiler": {
    "name": "solc",
    "version": "0.7.6+commit.7338295f.Emscripten.clang"
  },
  "schemaVersion": "3.4.16",
  "updatedAt": "2024-07-21T15:16:48.200Z",
  "devdoc": {
    "kind": "dev",
    "methods": {},
    "version": 1
  },
  "userdoc": {
    "kind": "user",
    "methods": {},
    "version": 1
  }
}